:1000000071C0000079C0000077C0000075C000001A
:1000100073C0000071C000006FC000006DC0000020
:100020006BC0000069C0000067C0000065C0000030
:1000300063C0000061C000005FC000005DC0000040
:100040005BC0000059C0000057C0000055C0000050
:1000500053C0000051C000004FC000004DC0000060
:100060004BC0000049C0000047C0000045C0000070
:1000700043C0000041C000003FC000003DC0000080
:100080003BC0000039C0000037C0000035C0000090
:1000900033C0000031C000002FC000002DC00000A0
:1000A0002BC0000029C0000027C0000025C00000B0
:1000B00023C0000021C000001FC000001DC00000C0
:1000C0001BC0000019C0000017C0000015C00000D0
:1000D00013C0000011C000000FC000000DC00000E0
:1000E0000BC0000011241FBECFEFD1E2DEBFCDBF99
:1000F00000E00CBF54D089C083CF8FEF81B987B99E
:1001000012B818B8089580E480937C0087E8809343
:100110007A000895ECE7F0E09081907F8F70892B52
:100120008083EAE7F0E080818064808380917A00B8
:1001300086FDFCCF809178009091790008950F930F
:100140001F93CF93DF93EC0168EE73E037D0FB0190
:1001500024E630E0B90132D0462FCE01B9012ED0CD
:100160000AE010E0B8012AD09B01CE01B80126D0E8
:10017000E295F295F07FFE27E07FFE274F70E42B9B
:10018000E8B922953295307F3227207F32278F7051
:10019000282B22B9DF91CF911F910F910895ADDFE8
:1001A000B2DF80E0B7DFCBDF2FEF83ED90E32150AC
:1001B00080409040E1F700C00000F3CF97FB072E8E
:1001C00016F4009406D077FD08D00BD007FC05D0BC
:1001D0003EF4909581959F4F0895709561957F4F5E
:1001E0000895AA1BBB1B51E107C0AA1FBB1FA6177E
:1001F000B70710F0A61BB70B881F991F5A95A9F7D0
:0E02000080959095BC01CD010895F894FFCF34
:00000001FF
