S01700004763634170706C69636174696F6E312E737265635B
S11300000C9434000C9449000C9449000C9449005D
S11300100C9449000C9449000C9449000C94490038
S11300200C9449000C9449000C9449000C94490028
S11300300C9449000C9449000C9449000C94490018
S11300400C9449000C9449000C9449000C94490008
S11300500C9449000C9449000C9449000C944900F8
S11300600C9449000C94490011241FBECFEFD8E032
S1130070DEBFCDBF11E0A0E0B1E0E8E0F2E002C0F5
S113008005900D92A630B107D9F70E94ED000C94AB
S113009002010C9400009BB19F70282F207F922BAB
S11300A09BB99BB19F7B9BB99BB19F7D9BB99BB136
S11300B090619BB935E03A95F1F700009BB19F7EC2
S11300C09BB9EFE1F3E03197F1F700C000002BB1E9
S11300D0F0E18F9FC0011124922F9F70892B8BB95F
S11300E08BB180618BB935E03A95F1F700008BB1A3
S11300F08F7E8BB98FE39FE10197F1F700C0000079
S113010008959BB19F70282F207F922B9BB99BB1A0
S113011090649BB99BB19F7D9BB99BB190619BB946
S113012035E03A95F1F700009BB19F7E9BB9EFE172
S1130130F3E03197F1F700C000002BB1F0E18F9F9D
S1130140C0011124922F9F70892B8BB98BB18061D0
S11301508BB935E03A95F1F700008BB18F7E8BB9FE
S11301608FE39FE10197F1F700C0000008952FEF9E
S113017089EF90E0215080409040E1F700C00000FA
S113018082E00E944B0088E20E944B008CE00E94B7
S11301904B0086E00E944B0081E00E944B008FE3FD
S11301A09FE10197F1F700C000000895CF93DF931A
S11301B0EC018881882321F021960E948100F9CFE7
S11301C0DF91CF91089581E00E944B008FE39FE17E
S11301D00197F1F700C0000008958AB18F678AB9CA
S11301E00E94B70080E091E00E94D6002FEF83EDDB
S11301F090E3215080409040E1F700C000000E944D
S10B0200E300FFCFF894FFCFE7
S1090208444549450000D5
S9030000FC
