S01A000045475F323032315F343832362D4C414230342E73726563C7
S11300000C9434000C943E000C943E000C943E007E
S11300100C943E000C943E000C943E000C943E0064
S11300200C943E000C943E000C943E000C943E0054
S11300300C943E000C943E000C943E000C943E0044
S11300400C943E000C943E000C943E000C943E0034
S11300500C943E000C943E000C943E000C943E0024
S11300600C943E000C943E0011241FBECFEFD8E048
S1130070DEBFCDBF0E945A000C9468000C940000AF
S113008087E68093C4001092C50088E18093C10084
S113009086E08093C20008959091C00095FFFCCF44
S11300A08093C60008958091C0008823E4F780916E
S11300B0C600089584B1806284B90E9440000E9401
S11300C053000E944C0095B180E2892785B9F7CF8F
S10700D0F894FFCFCE
S9030000FC
