S01700004763634170706C69636174696F6E312E737265635B
S11300000C9434000C943E000C943E000C943E007E
S11300100C943E000C943E000C943E000C943E0064
S11300200C943E000C943E000C943E000C943E0054
S11300300C943E000C943E000C943E000C943E0044
S11300400C943E000C943E000C943E000C943E0034
S11300500C943E000C9481000C943E000C943E00E1
S11300600C943E000C943E0011241FBECFEFD8E048
S1130070DEBFCDBF0E945D000C949D000C94000077
S1130080EAE7F0E0808180688083808187608083F4
S1130090ACE7B0E08C918F708C938C91807F8C93C3
S11300A0808188608083808180628083EBE7F0E0D8
S11300B08081887F8083789408958FEF8AB983E262
S11300C084B90E944000EAE7F0E080818064808384
S11300D085B1806285B92FEF89E698E1215080408F
S11300E09040E1F700C0000085B18F7D85B92FEF06
S11300F089E698E1215080409040E1F700C000007B
S1130100E7CF1F920F920FB60F9211248F939F93F4
S1130110EF93FF93E8E7F0E0808191818BB98081D0
S1130120918185B1892B85B9FF91EF919F918F9131
S11101300F900FBE0F901F901895F894FFCFFC
S9030000FC
