S01700004763634170706C69636174696F6E312E737265635B
S11300000C9434000C943E000C943E000C943E007E
S11300100C943E000C943E000C943E000C943E0064
S11300200C943E000C943E000C943E000C943E0054
S11300300C943E000C943E000C943E000C943E0044
S11300400C943E000C943E000C943E000C943E0034
S11300500C943E000C943E000C943E000C943E0024
S11300600C943E000C943E0011241FBECFEFD8E048
S1130070DEBFCDBF0E945C000C9469000C940000AC
S113008080E480937C0087E880937A000895ECE70D
S1130090F0E09081907F8F70892B8083EAE7F0E015
S11300A080818064808380917A0086FDFCCF80917A
S11300B078009091790008958FEF8AB983E084B92C
S11300C00E94400080E00E9447008BB9937095B96C
S10900D0F9CFF894FFCF04
S9030000FC
